000000000000000000SIAPEFITAESP26415IFMS      072012                                                                                                                                                                                                                                                                                                                                                                                                                                                                                                                                                                                                                                                                                                                                         
000000002004980391MSJOSE JUNIO RODRIGUES DE SOUZA                               2771525615317022161818AMALIA RODRIGUES DE SOUSA                         M2311196221000     1GO000000000000708198601351697INSTITUTO FEDERAL GOIANO CAMPOS DE IPORAS/N                        CENTRO                   IPORA                         79750000GO1258498       SSP  10041990GO000035405278002467   99789174                                                                                                                                                                                                                                                                                                                                                                                     
000000002004980392MSEST0300000000000  001003506000000001355200000000000                   400015012010 0000000000000000 0000000000000000000CD 00002  S0103201027072011000000002   00000   00000000000000000000000000099000000000000000002641500000001701050010120100900000012322072009000000000000000         00000000021082707201100         0000000000000000000000000000000         00000000000000000000000         00000000               0000 000000000000000000000000         00000000   0000000000000002640726258004980326258004980300000000000000000000000000000 1                                                                        00000000000000000 00000000270720110000000000000000000000000000000000000000000         00000000000000000000000         SSSSSSSSSSSSSSSSSSSSS
000000002039275421MSMARCUS AURELIUS STIER SERPE                                 3168108596810104192000ELIETTE STIER SERPE                               M2709195721300     1PR000000001003101197701651033AV AFONSO PENA                          4730  AP. 2003             CHACARA CACHOEIRA        CAMPO GRANDE                  79040010MS14455752      II   17031992PR000481192065502467   30424897                                                                                                                                                                                                                                                                                                                                                                                     
000000002039275422MSEST0300000000000  104008133000000506557500000000000                   400015062011 0000000000000000 0000000000000000000CD 00001  S0106201100000000000000002   00000   00000000000000000000000000062000000000000000002625800000032701101010620110439       08012009000000000000000         00000000000000000000000         0000000000000000000000000000000         00000000000000000000000         00000000               0000 000000000000000000000000         00000000   0000000000000002625800000000000000000000000000000000000000000000000000000 0                                                                0000000000000000000000000 00000000000000000000000000000000000000000000000000000000000         00000000000000000000000         SSSSSSSSSSSSSSSSSSSSS
000000002039275423MS1005220000005333710000000000000000                                                     000                   00000000000000000                                                                                                                                                                                                                                                                                                                                                                                                                                                                                                                                                                                                                                          
000000002039275423MS2990010000001204420000000000000000                                                     000                   00000000000000000                                                                                                                                                                                                                                                                                                                                                                                                                                                                                                                                                                                                                                          
000000002039275424MS000000533371000000120442000000412929002                                                                                                                                                                                                                                                                                                                                                                                                                                                                                                                                                                                                                                                                                                                                 
000000002039309261MSDANIELA MATTE AMARO                                         8292564098212299513541ADILES MARIA MATTE AMARO                          F2811197111000     1RS000000000002912198901651047RUA JUPITER                             461                        VILA PLANALTO            CAMPO GRANDE                  79009020MS53587151      SSPPR01051989PR004817949063902467   30425117                                                                                                                                                                                                                                                                                                                                                                                     
000000002039309262MSEST0300000000000  104008133000000505161200000000000                   400015062011 0000000000000000 0000000000000000000CD 00003  S0106201100000000000000015   00000   000000000000000000000000000990000000000000000026258000000327011010106201104614      03062009000000000000000         00000000000000000000000         0000000000000000000000000000000         00000000000000000000000         00000000               0000 000000000000000000000000         00000000   0000000000000002625800000000000000000000000000000000000000000000000000000 0                                                                0000000000000000000000000 00000000000000000000000000000000000000000000000000000000000         00000000000000000000000         SSSSSSSSSSSSSSSSSSSSS
000000002039309263MS1002209000001166750010000000000000                                                     000                   00000000000000000                                                                                                                                                                                                                                                                                                                                                                                                                                                                                                                                                                                                                                          
000000002039309263MS1005220000003500250000000000000000                                                     000                   00000000000000000                                                                                                                                                                                                                                                                                                                                                                                                                                                                                                                                                                                                                                          
000000002039309263MS2990010000000542250000000000000000                                                     000                   00000000000000000                                                                                                                                                                                                                                                                                                                                                                                                                                                                                                                                                                                                                                          
000000002039309263MS2990040000000022840000000000000000                                                     000                   00000000000000000                                                                                                                                                                                                                                                                                                                                                                                                                                                                                                                                                                                                                                          
000000002039309264MS000000466700000000056509000000410191004                                                                                                                                                                                                                                                                                                                                                                                                                                                                                                                                                                                                                                                                                                                                 
000000002039398001MSMARCELINA TERUKO FUJII MASCHIO                              5644589099718046226128TAREKO SUZUKI FUJII                               F0511196421400     1PR000000002001102198501651049RUA FAGUNDES VARELA                     405                        JARDIM SAO BENTO         CAMPO GRANDE                  79004200MS34062919      SSP  17012001PR001651748062002467   33319750                                                                                                                                                                                                                                                                                                                                                                                     
000000002039398002MSEST0300000000000  104003883000000012644500000000000                   400015062011 0000000000000000 0000000000000000000CD 00002  S0106201100000000000000006   00000   000000000000000000000000010280000000000000000026258000000327011010106201104484      30042009000000000000000         00000000000000000000000         0000000000000000000000000000000         00000000000000000000000         00000000               0000 000000000000000000000000         00000000   0000000000000002625800000000000000000000000000000000000000000000000000000 0                                                                0000000000000000000000000 00000000000000000000000000000000000000000000000000000000000         00000000000000000000000         SSSSSSSSSSSSSSSSSSSSS
000000002039398003MS1005220000004458650000000000000000                                                     000                   00000000000000000                                                                                                                                                                                                                                                                                                                                                                                                                                                                                                                                                                                                                                          
000000002039398003MS2990010000000981340000000000000000                                                     000                   00000000000000000                                                                                                                                                                                                                                                                                                                                                                                                                                                                                                                                                                                                                                          
000000002039398004MS000000445865000000098134000000347731002                                                                                                                                                                                                                                                                                                                                                                                                                                                                                                                                                                                                                                                                                                                                 
000000002043311801MSROBERTO ASSAD PINHEIRO MACHADO                              6428347075910884542863DEOLINDA ASSAD MACHADO                            M0705195721000     1MS000000000000401198001508524RUA BARAO DE MELGACO                    527                        CENTRO                   CAMPO GRANDE                  79002080MS00000000000373SSP  02081979MS000435169190202467   33827691                                                                                                                                                                                                                                                                                                                                                                                     
000000002043311802MSEST0300000000000  104008575000000002467600000000000                   400015012010 0000000000000000 0000000000000000000CD 00003  S0101201000000000000000002   00000   00000000000000000000000000053000000000000000002628300000062601050010120100900000012322072009000000000000000         00000000000000000000000         0000000000000000000000000000000         00000000000000000000000         00000000               0000 000000000000000000000000         00000000   0000000000000002628326258043311826258043311800000000000000000000000000000 0                                                                        00000000000000000 00000000000000000000000000000000000000000000000000000000000         00000000000000000000000         SSSSSSSSSSSSSSSSSSSSS
000000002043311803MS1005220000003500250000000000000000                                                     000                   00000000000000000                                                                                                                                                                                                                                                                                                                                                                                                                                                                                                                                                                                                                                          
000000002043311803MS2990010000000709680000000000000000                                                     000                   00000000000000000                                                                                                                                                                                                                                                                                                                                                                                                                                                                                                                                                                                                                                          
000000002043311804MS000000350025000000070968000000279057002                                                                                                                                                                                                                                                                                                                                                                                                                                                                                                                                                                                                                                                                                                                                 
000000002043364411MSPAULO MARCOS ESSELIN                                        1089709714910678146974MARIA AP ARRUDA ESSELIN                           M0408195521000     1MG000000000000201197501470795TRAV PRAIA DAS CASTANHEIRAS             23                         JD AUTONOMISTA           CAMPO GRANDE                  79021020MS00000008845599SSP  02011975SP0010897097170024067  99789165                                                                                                                                                                                                                                                                                                                                                                                     
000000002043364412MSEST0300000000000  001029513000000072471800000000000                   400015012010 0000000000000000 0000000000000000000CD 00002  S0101201000000000000000002   00000   00000000000000000000000001028000000000000000002628300000086401050010120100900000012322072009000000000000000         00000000000000000000000         0000000000000000000000000000000         00000000000000000000000         00000000               0000 000000000000000000000000         00000000   0000000000000002628326258043364426258043364400000000000000000000000000000 0                                                                        00000000000000000 00000000000000000000000000000000000000000000000000000000000         00000000000000000000000         SSSSSSSSSSSSSSSSSSSSS
000000002043364413MS1005220000004458650000000000000000                                                     000                   00000000000000000                                                                                                                                                                                                                                                                                                                                                                                                                                                                                                                                                                                                                                          
000000002043364413MS2990010000000953110000000000000000                                                     000                   00000000000000000                                                                                                                                                                                                                                                                                                                                                                                                                                                                                                                                                                                                                                          
000000002043364414MS000000445865000000095311000000350554002                                                                                                                                                                                                                                                                                                                                                                                                                                                                                                                                                                                                                                                                                                                                 
000000002043944241MSIVAN FERREIRA DOMINGUES                                     1436102715317008016075ALZIRA FERREIRA DOMINGUES                         M2602195821000     1MT000000001000201198001502422RUA BOM PASTOR                          807                        VILAS BOAS               CAMPO GRANDE                  79051220MS421080        SSP  15011980DF001107860190202467   33414347                                                                                                                                                                                                                                                                                                                                                                                     
000000002043944242MSEST0300000000000  104031445000000004225000000000000                   400015012010 0000000000000000 0000000000000000000CD 00002  S0101201000000000000000002   00000   00000000000000000000000001026000000000000000002628300000069301050010120100900000012322072009000000000000000         00000000000000000000000         0000000000000000000000000000000         00000000000000000000000         00000000               0000 000000000000000000000000         00000000   0000000000000002628326258043944226258043944200000000000000000000000000000 0                                                                        00000000000000000 00000000000000000000000000000000000000000000000000000000000         00000000000000000000000         SSSSSSSSSSSSSSSSSSSSS
000000002043944243MS1005220000004458650000000000000000                                                     000                   00000000000000000                                                                                                                                                                                                                                                                                                                                                                                                                                                                                                                                                                                                                                          
000000002043944243MS2990010000000930550000000000000000                                                     000                   00000000000000000                                                                                                                                                                                                                                                                                                                                                                                                                                                                                                                                                                                                                                          
000000002043944244MS000000445865000000093055000000352810002                                                                                                                                                                                                                                                                                                                                                                                                                                                                                                                                                                                                                                                                                                                                 
000000002103890111MSLUIZ SIMAO STASZCZAK                                        4728241092510860600782IZABEL STASZCZAK                                  M2803196321000     1PR000000001000108197801556296PRACA BARAO DO RIO BRANCO               90    APT. 111             CENTRO                   PONTA GROSSA                  84010710PR31953278      SSPEL15031980PR003808988062002442   32281127                                                                                                                                                                                                                                                                                                                                                                                     
000000002103890112MSEST0300000000000  001000302000000025432000000000000                   400006052010 0000000000000000 0000000000000000000CD 00002  S0803201000000000000000041   00000   0000000000000000000000000009900000000000000000262580000006480110108032010048        16032010000000000000000         00000000000000000000000         0000000000000000000000000000000         00000000000000000000000         00000000               0000 000000000000000000000000         00000000   0000000000000002625800000000000000000000000000000000000000000000000000000 0                                                                        00000000000000000 00000000000000000000000000000000000000000000000000000000000         00000000000000000000000         SSSSSSSSSSSSSSSSSSSSS
000000002103890113MS1005220000004458650000000000000000                                                     000                   00000000000000000                                                                                                                                                                                                                                                                                                                                                                                                                                                                                                                                                                                                                                          
000000002103890113MS2990010000000922270000000000000000                                                     000                   00000000000000000                                                                                                                                                                                                                                                                                                                                                                                                                                                                                                                                                                                                                                          
000000002103890114MS000000445865000000092227000000353638002                                                                                                                                                                                                                                                                                                                                                                                                                                                                                                                                                                                                                                                                                                                                 
000000002112641911MSJOELSON MASCHIO                                             0680550984012155074214MARIA DE LOURDES CARON MASCHIO                    M1311196621000     1SP000000001002404198501600914RUA ANTONIO PIMENTA SOBRINHO            154                        JARDIM BANDEIRANTES      CORNELIO PROCOPIO             86300000PR15814944      SSP  29111984SP007347076067102443   35232314                                                                                                                                                                                                                                                                                                                                                                                     
000000002112641912MSEST0300000000000  104022241000000006908800000000000                   400021102010 0000000000000000 0000000000000000000CD 00002  S0110201000000000000000012   00000   000000000000000000000000000990000000000000000026258000000541011010110201004226      15102010000000000000000         00000000000000000000000         0000000000000000000000000000000         00000000000000000000000         00000000               0000 000000000000000000000000         00000000   0000000000000002625800000000000000000000000000000000000000000000000000000 0                                                                        00000000000000000 00000000000000000000000000000000000000000000000000000000000         00000000000000000000000         SSSSSSSSSSSSSSSSSSSSS
000000002112641913MS1005220000004458650000000000000000                                                     000                   00000000000000000                                                                                                                                                                                                                                                                                                                                                                                                                                                                                                                                                                                                                                          
000000002112641913MS2990010000000901230000000000000000                                                     000                   00000000000000000                                                                                                                                                                                                                                                                                                                                                                                                                                                                                                                                                                                                                                          
000000002112641914MS000000445865000000090123000000355742002                                                                                                                                                                                                                                                                                                                                                                                                                                                                                                                                                                                                                                                                                                                                 
000000002114505211MSSANDRA FERNANDES                                            5954824010617032036889OLIDIA VALENTIN FERNANDES                         F0401197421025     1MS000000000000112199400188012RUA AUSTRIA                             950                        JARDIM MONACO            DOURADOS                      79826632MS00000000669770SSP  19041990MS001180870195302467   34214159                                                                                                                                                                                                                                                                                                                                                                                     
000000002114505212MSEST0100000000000  001003913000000052822600000000000                   400412052011 0000000000701015E1010205201127012012FG 00002   2111201127012012000000020   00000   000000000000000000000000020380000000200205201126415000000020011000205201104294      07042011010012504201104664/94   28091994021222701201200         0000000000000000000000000000000         00000000000000000000000         00000000               0000 000000000000000000000000         00000000   0000000000000000000000000000000000000000000000000000000000000000000000000 1                                                                        00000000000000000 02052011270120120000000000000120000000000000000000000000000         00000000000000000000000         SSSSSSSSSSSSSSSSSSSSS
000000002121888201MSKARIN FERRAZ                                                3484782099110704558154EDITH FERRAZ                                      F2305195611326     1PR000000000000110197601737084RUA PORTO ALEGRE                        425                        JARDIM ITALIA            DOURADOS                      79814440MS2070356       II   14062012MS000410333065502467   81276493                                                                                                                                                                                                                                                                                                                                                                                     
000000002121888202MSEST0100000000000  001003913000000063310000000000000                   400011072012 0000000000702001D1010407201200000000   00000   0000000000000000000000000   00000   000000000000000000000000000000000000380407201200000000000000011000407201204377      30052012011002806201204377      30052012000000000000000         0000000000000000000000000000000         00000000000000000000000         00000000               0000 000000000000000000000000         00000000   0000000000000000000000000000000000000000000000000000000000000000000000000 0                                                                        00000000000000000 04072012000000000000000847610000000000000000000000000000000         00000000000000000000000         SSSSSSSSSSSSSSSSSSSSS
000000002121888203MS1000010000001993980000000000000000                                                     000                   00000000000000000                                                                                                                                                                                                                                                                                                                                                                                                                                                                                                                                                                                                                                          
000000002121888203MS1001360000000304000000000000000000                                                     000                   00000000000000000                                                                                                                                                                                                                                                                                                                                                                                                                                                                                                                                                                                                                                          
000000002121888203MS1001361000000276360010000000000000                                                     000                   00000000000000000                                                                                                                                                                                                                                                                                                                                                                                                                                                                                                                                                                                                                                          
000000002121888203MS1826061000000678750000000000000000                                                     000                   00000000000000000                                                                                                                                                                                                                                                                                                                                                                                                                                                                                                                                                                                                                                          
000000002121888203MS2826061000000090500010000000403026 82606                                               000                   00000000000000000                                                                                                                                                                                                                                                                                                                                                                                                                                                                                                                                                                                                                                          
000000002121888203MS2980020000000284040000000000000000                                                     000                   00000000000000000                                                                                                                                                                                                                                                                                                                                                                                                                                                                                                                                                                                                                                          
000000002121888203MS2990010000000049580000000000000000                                                     000                   00000000000000000                                                                                                                                                                                                                                                                                                                                                                                                                                                                                                                                                                                                                                          
000000002121888204MS000000325309000000042412000000282897007                                                                                                                                                                                                                                                                                                                                                                                                                                                                                                                                                                                                                                                                                                                                 
000000002121957371MSMARTA FREIRE DE BARROS REFUNDINI                            0085713570817064922884JACIRA BENEDITA FREIRE DE BARROS                  F1412196921000     1MS000000001001703199701559313RUA DR. OSWALDO ARANTES FILHO           229                        CHACARA CACHOEIRA        CAMPO GRANDE                  79040280MS070364294     SSP  12031992RJ007383784039602467   33018009                                                                                                                                                                                                                                                                                                                                                                                     
000000002121957372MSEST1800000000000  001019976000000312030900000000000                   400014052010 0000000000000000 0000000000000000000CD 00004  S2804201000000000000000002   00000   000000000000000000000000000380000000000000000040106000002433011012804201004323      28042010000000000000000         00000000000000000000000         0000000000000000000000000000000         00000000000000000000000         00000000               0000 000000000000000000000000         00000000   0000000000000004010600000000000000000000000000000000000000000000000000000 0                                                                        00000000000000000 00000000000000000000000000000000000000000000000000000000000         00000000000000000000000         SSSSSSSSSSSSSSSSSSSSS
000000002121957373MS1005220000002541840000000000000000                                                     000                   00000000000000000                                                                                                                                                                                                                                                                                                                                                                                                                                                                                                                                                                                                                                          
000000002121957373MS2990010000000596350000000000000000                                                     000                   00000000000000000                                                                                                                                                                                                                                                                                                                                                                                                                                                                                                                                                                                                                                          
000000002121957374MS000000254184000000059635000000194549002                                                                                                                                                                                                                                                                                                                                                                                                                                                                                                                                                                                                                                                                                                                                 
000000002122506141MSMARCIO OSSHIRO                                              6391938911512356030338TEREZA OSSHIRO                                    M2604197321025     1MS000000002000103198801669192RUA GONCALVES DIAS                      71                         MONTE LIBANO             CAMPO GRANDE                  79004210MS63628         SSP  31081989MS001015770190202467   33429584                                                                                                                                                                                                                                                                                                                                                                                     
000000002122506142MSEST0100000000000  001018732000000030300300000000000                   990009092011 0000000000702001D1010509201100000000   00000   0000000000000000000000000   00000   000000000000000000000000000000000000130509201100000000000000011000509201104592      11082011011000209201104592      11082011000000000000000         0000000000000000000000000000000         00000000000000000000000         00000000               0000 000000000000000000000000         00000000   0000000000000000000000000000000000000000000000000000000000000000000000000 0                                                                        00000000000000000 05092011000000000000000212485000000000000000000000000000000         00000000000000000000000         SSSSSSSSSSSSSSSSSSSSS
000000002122506143MS1000010000002872850000000000000000                                                     000                   00000000000000000                                                                                                                                                                                                                                                                                                                                                                                                                                                                                                                                                                                                                                          
000000002122506143MS1000286000000017600000000000000000                                                     000                   20120600000000000                                                                                                                                                                                                                                                                                                                                                                                                                                                                                                                                                                                                                                          
000000002122506143MS1001360000000304000000000000000000                                                     000                   00000000000000000                                                                                                                                                                                                                                                                                                                                                                                                                                                                                                                                                                                                                                          
000000002122506143MS1007000000000074000000000000000000                                                     000                   00000000000000000                                                                                                                                                                                                                                                                                                                                                                                                                                                                                                                                                                                                                                          
000000002122506143MS1826061000000372030000000000000000                                                     000                   00000000000000000                                                                                                                                                                                                                                                                                                                                                                                                                                                                                                                                                                                                                                          
000000002122506143MS2321211000000219700450000000000000                                                     000                   00000000000000000                                                                                                                                                                                                                                                                                                                                                                                                                                                                                                                                                                                                                                          
000000002122506143MS2735800000000003700000000000000000                                                     000                   00000000000000000                                                                                                                                                                                                                                                                                                                                                                                                                                                                                                                                                                                                                                          
000000002122506143MS2980020000000356930000000000000000                                                     000                   00000000000000000                                                                                                                                                                                                                                                                                                                                                                                                                                                                                                                                                                                                                                          
000000002122506143MS2990010000000090200000000000000000                                                     000                   00000000000000000                                                                                                                                                                                                                                                                                                                                                                                                                                                                                                                                                                                                                                          
000000002122506144MS000000364048000000067053000000296995009                                                                                                                                                                                                                                                                                                                                                                                                                                                                                                                                                                                                                                                                                                                                 
000000002124261511MSVALDOMIRO ANTONIO DE OLIVEIRA LIMA                          6393228814917013704782IRENE VIEIRA DE OLIVEIRA                          M0707197521000     1MS000000003000305200001623549RUA DOM AQUINO CORREA                   1218  CASA 01              CENTRO                   CORUMBA                       79330060MS780801        SSPMS09041992MS001235291198802467   32326022                                                                                                                                                                                                                                                                                                                                                                                     
000000002124261512MSEST0100000000000  104000183000000022292100000000000                   990017022011 0000000000702001D1010402201100000000FG 00002   1605201200000000000000028   00000   000000000000000000000000020380000000280402201100000000000000011002001201104354      23122010010010402201104354      20122010000000000000000         0000000000000000000000000000000         00000000000000000000000         00000000               0000 000000000000000000000000         00000000   0000000000000000000000000000000000000000000000000000000000000000000000000 0                                                                        00000000000000000 04022011000000000000000841892000000000000000000000000000000         00000000000000000000000         SSSSSSSSSSSSSSSSSSSSS
000000002124261513MS1000010000002872850000000000000000                                                     000                   00000000000000000                                                                                                                                                                                                                                                                                                                                                                                                                                                                                                                                                                                                                                          
000000002124261513MS1000286000000026110000000000000000                                                     000                   20120600000000000                                                                                                                                                                                                                                                                                                                                                                                                                                                                                                                                                                                                                                          
000000002124261513MS1001360000000304000000000000000000                                                     000                   00000000000000000                                                                                                                                                                                                                                                                                                                                                                                                                                                                                                                                                                                                                                          
000000002124261513MS1002560000000091820000000000000000                                                     000                   00000000000000000                                                                                                                                                                                                                                                                                                                                                                                                                                                                                                                                                                                                                                          
000000002124261513MS1005930000000152410000000000000000                                                     000                   00000000000000000                                                                                                                                                                                                                                                                                                                                                                                                                                                                                                                                                                                                                                          
000000002124261513MS1007000000000148000000000000000000                                                     000                   00000000000000000                                                                                                                                                                                                                                                                                                                                                                                                                                                                                                                                                                                                                                          
000000002124261513MS1007120000000269740000000000000000                                                     000                   00000000000000000                                                                                                                                                                                                                                                                                                                                                                                                                                                                                                                                                                                                                                          
000000002124261513MS1827370000000366000000000000000000                                                     000                   00000000000000000                                                                                                                                                                                                                                                                                                                                                                                                                                                                                                                                                                                                                                          
000000002124261513MS2322861000000422350580000000000000                                                     000                   00000000000000000                                                                                                                                                                                                                                                                                                                                                                                                                                                                                                                                                                                                                                          
000000002124261513MS2322863000000114340530000000000000                                                     000                   00000000000000000                                                                                                                                                                                                                                                                                                                                                                                                                                                                                                                                                                                                                                          
000000002124261513MS2322864000000285990550000000000000                                                     000                   00000000000000000                                                                                                                                                                                                                                                                                                                                                                                                                                                                                                                                                                                                                                          
000000002124261513MS2322865000000115910600000000000000                                                     000                   00000000000000000                                                                                                                                                                                                                                                                                                                                                                                                                                                                                                                                                                                                                                          
000000002124261513MS2735800000000007400000000000000000                                                     000                   00000000000000000                                                                                                                                                                                                                                                                                                                                                                                                                                                                                                                                                                                                                                          
000000002124261513MS2827371000000011780000000000000000                                                     000                   00000000000000000                                                                                                                                                                                                                                                                                                                                                                                                                                                                                                                                                                                                                                          
000000002124261513MS2980020000000316010000000000000000                                                     000                   00000000000000000                                                                                                                                                                                                                                                                                                                                                                                                                                                                                                                                                                                                                                          
000000002124261513MS2990010000000104770000000000000000                                                     000                   00000000000000000                                                                                                                                                                                                                                                                                                                                                                                                                                                                                                                                                                                                                                          
000000002124261514MS000000423093000000137855000000285238016                                                                                                                                                                                                                                                                                                                                                                                                                                                                                                                                                                                                                                                                                                                                 
000000002127962771MSJARBAS MAGNO MIRANDA                                        0278871062317055440090MARIA HELENA MIRANDA                              M1808197311000     1MG000000001000104199801483600RUA JUAHN GILL                          751                        CENTRO                   NOVA ANDRADINA                70750000MS7156346       SSP  24071992MG010509008025602467   81722365                                                                                                                                                                                                                                                                                                                                                                                     
000000002127962772MSEST0300000000000  001003506000000015844500000000000                   400015012010 0000000000000000 0000000000000000000CD 00002  S2607201100000000000000017   00000   00000000000000000000000000099000000000000000002640700000002201050010120100900000012322072009000000000000000         00000000000000000000000         0000000000000000000000000000000         00000000000000000000000         00000000               0000 000000000000000000000000         00000000   0000000000000002640726258127962726258127962700000000000000000000000000000 0                                                                        00000000000000000 00000000000000000000000000000000000000000000000000000000000         00000000000000000000000         SSSSSSSSSSSSSSSSSSSSS
000000002127962773MS1005220000004458650000000000000000                                                     000                   00000000000000000                                                                                                                                                                                                                                                                                                                                                                                                                                                                                                                                                                                                                                          
000000002127962773MS1827370000000148000000000000000000                                                     000                   00000000000000000                                                                                                                                                                                                                                                                                                                                                                                                                                                                                                                                                                                                                                          
000000002127962773MS2990010000000832100000000000000000                                                     000                   00000000000000000                                                                                                                                                                                                                                                                                                                                                                                                                                                                                                                                                                                                                                          
000000002127962774MS000000460665000000083210000000377455003                                                                                                                                                                                                                                                                                                                                                                                                                                                                                                                                                                                                                                                                                                                                 
000000002128491331MSPAULO CESAR DA SILVA                                        3386673210412046070668EVA CAINELLI DA SILVA                             M1412196521000     1SP000000000000106198101622740RUA LUIZ CORREA DA SILVEIRA             1780                       JARDIM ALVORADA          TRES LAGOAS                   79610060MS268545        SSPMS23081983MS0004558071937024067  35217263                                                                                                                                                                                                                                                                                                                                                                                     
000000002128491332MSEST0100000000000  104005630000000001046400000000000                   400015022011 0000000000701200D1010402201100000000FG 00002   0112201100000000000000045   00000   000000000000000000000000020380000000450402201100000000000000011002001201104410      23122010000000000000000         00000000000000000000000         0000000000000000000000000000000         00000000000000000000000         00000000               0000 000000000000000000000000         00000000   0000000000000000000000000000000000000000000000000000000000000000000000000 0                                                                        00000000000000000 04022011000000000000000832375000000000000000000000000000000         00000000000000000000000         SSSSSSSSSSSSSSSSSSSSS
000000002128491333MS1000010000001821940000000000000000                                                     000                   00000000000000000                                                                                                                                                                                                                                                                                                                                                                                                                                                                                                                                                                                                                                          
000000002128491333MS1001360000000304000000000000000000                                                     000                   00000000000000000                                                                                                                                                                                                                                                                                                                                                                                                                                                                                                                                                                                                                                          
000000002128491333MS1002560000000091820000000000000000                                                     000                   00000000000000000                                                                                                                                                                                                                                                                                                                                                                                                                                                                                                                                                                                                                                          
000000002128491333MS1005930000000152410000000000000000                                                     000                   00000000000000000                                                                                                                                                                                                                                                                                                                                                                                                                                                                                                                                                                                                                                          
000000002128491333MS1007120000000269740000000000000000                                                     000                   00000000000000000                                                                                                                                                                                                                                                                                                                                                                                                                                                                                                                                                                                                                                          
000000002128491333MS1824621000000491920000270000000026 00001                                               000                   00000000000000000                                                                                                                                                                                                                                                                                                                                                                                                                                                                                                                                                                                                                                          
000000002128491333MS2980020000000254520000000000000000                                                     000                   00000000000000000                                                                                                                                                                                                                                                                                                                                                                                                                                                                                                                                                                                                                                          
000000002128491333MS2990010000000079190000000000000000                                                     000                   00000000000000000                                                                                                                                                                                                                                                                                                                                                                                                                                                                                                                                                                                                                                          
000000002128491334MS000000313183000000033371000000279812008                                                                                                                                                                                                                                                                                                                                                                                                                                                                                                                                                                                                                                                                                                                                 
000000002130059311MSROBERTI ANDRE DA SILVA FILHO                                4036475517212529326527ISABEL DE SOUZA BRITO E SILVA                     M1901196521326     1SP000000000001004199501597395RUA ITALIA                              169                        J. IACY                  CAMPO GRANDE                  79006370MS244030        SSP  01081987MS000305448199602467   30295689                                                                                                                                                                                                                                                                                                                                                                                     
000000002130059312MSEST0100000000000  104019798000000002709400000000000                   990013102010 0000000000702001D1020410201000000000FG 00002   2111201101032012000000013   00000   000000000000000000000000020380000000130410201000000000000000011000410201004132      26082010010010410201004132      25082010000000000000000         0000000000000000000000000000000         00000000000000000000000         00000000               0000 000000000000000000000000         00000000   0000000000000000000000000000000000000000000000000000000000000000000000000 0                                                                        00000000000000000 04102010000000000000000841863000000000000000000000000000000         00000000000000000000000         SSSSSSSSSSSSSSSSSSSSS
000000002130059313MS1000010000002927940000000000000000                                                     000                   00000000000000000                                                                                                                                                                                                                                                                                                                                                                                                                                                                                                                                                                                                                                          
000000002130059313MS1001360000000304000000000000000000                                                     000                   00000000000000000                                                                                                                                                                                                                                                                                                                                                                                                                                                                                                                                                                                                                                          
000000002130059313MS1826061000001529170000000000000000                                                     000                   00000000000000000                                                                                                                                                                                                                                                                                                                                                                                                                                                                                                                                                                                                                                          
000000002130059313MS2980020000000490280000000000000000                                                     000                   00000000000000000                                                                                                                                                                                                                                                                                                                                                                                                                                                                                                                                                                                                                                          
000000002130059313MS2990010000000340380000000000000000                                                     000                   00000000000000000                                                                                                                                                                                                                                                                                                                                                                                                                                                                                                                                                                                                                                          
000000002130059314MS000000476111000000083066000000393045005                                                                                                                                                                                                                                                                                                                                                                                                                                                                                                                                                                                                                                                                                                                                 
000000002130098131MSHILDA RIBEIRO ROMERO                                        5545133011517043003286ANATALIA RIBEIRO ROMERO                           F2002197011326     1MS000000002001605199001623434RUA XV DE AGOSTO                        1080  CASA                 ALTO                     AQUIDAUANA                    79200000MS581571        SSP  13012003MS000928071195302467   32417324                                                                                                                                                                                                                                                                                                                                                                                     
000000002130098132MSEST0100000000000  001001236000000002340X00000000000                   990017022011 0000000000702001D1010402201100000000FG 00001   0106201200000000000000022   00000   000000000000000000000000013450000000220106201200000000000000011002001201104347      23122010000000000000000         00000000000000000000000         0000000000000000000000000000000         00000000000000000000000         00000000               0000 000000000000000000000000         00000000   0000000000000000000000000000000000000000000000000000000000000000000000000 0                                                                        00000000000000000 04022011000000000000000841885000000000000000000000000000000         00000000000000000000000         SSSSSSSSSSSSSSSSSSSSS
000000002130098133MS1000010000002872850000000000000000                                                     000                   00000000000000000                                                                                                                                                                                                                                                                                                                                                                                                                                                                                                                                                                                                                                          
000000002130098133MS1001360000000304000000000000000000                                                     000                   00000000000000000                                                                                                                                                                                                                                                                                                                                                                                                                                                                                                                                                                                                                                          
000000002130098133MS1002560000000107500000000000000000                                                     000                   00000000000000000                                                                                                                                                                                                                                                                                                                                                                                                                                                                                                                                                                                                                                          
000000002130098133MS1005930000000178450000000000000000                                                     000                   00000000000000000                                                                                                                                                                                                                                                                                                                                                                                                                                                                                                                                                                                                                                          
000000002130098133MS1007120000000478040000000000000000                                                     000                   00000000000000000                                                                                                                                                                                                                                                                                                                                                                                                                                                                                                                                                                                                                                          
000000002130098133MS1826061000001489630000000000000000                                                     000                   00000000000000000                                                                                                                                                                                                                                                                                                                                                                                                                                                                                                                                                                                                                                          
000000002130098133MS1827370000000241000000000000000000                                                     000                   00000000000000000                                                                                                                                                                                                                                                                                                                                                                                                                                                                                                                                                                                                                                          
000000002130098133MS2324361000000121570540000000000000                                                     000                   00000000000000000                                                                                                                                                                                                                                                                                                                                                                                                                                                                                                                                                                                                                                          
000000002130098133MS2980020000000479870000000000000000                                                     000                   00000000000000000                                                                                                                                                                                                                                                                                                                                                                                                                                                                                                                                                                                                                                          
000000002130098133MS2990010000000430770000000000000000                                                     000                   00000000000000000                                                                                                                                                                                                                                                                                                                                                                                                                                                                                                                                                                                                                                          
